:020000040800F2
:100000009006002091010008DB0E0008290E000870
:10001000D90E0008AF050008490F000800000000D5
:10002000000000000000000000000000E30E0008D7
:10003000B105000800000000E10E0008E50E000810
:10004000AB010008AB010008AB010008AB010008E0
:10005000AB010008AB010008B3050008B9050008B2
:10006000AB010008AB010008AB010008AB010008C0
:10007000AB010008AB010008AB010008AB010008B0
:10008000AB010008AB010008AB010008AB010008A0
:10009000AB010008AB010008AB010008AB01000890
:1000A000AB010008AB010008AB010008AB01000880
:1000B000AB010008AB010008AB010008AB01000870
:1000C000AB010008AB010008AB010008AB01000860
:1000D000AB010008AB010008AB010008AB01000850
:1000E000AB010008AB010008AB01000800F002F80A
:1000F00000F03FF80AA090E8000C82448344AAF183
:100100000107DA4501D100F034F8AFF2090EBAE880
:100110000F0013F0010F18BFFB1A43F0010318473B
:10012000AC100000CC100000103A24BF78C878C191
:10013000FAD8520724BF30C830C144BF04680C60ED
:10014000704700000023002400250026103A28BF35
:1001500078C1FBD8520728BF30C148BF0B60704739
:10016000642900F07180002070471FB51FBD10B5D5
:1001700010BD00F0E2F91146FFF7F7FF00F06AFF4B
:1001800000F000FA03B4FFF7F2FF03BC00F008FA36
:100190000948804709480047FEE7FEE7FEE7FEE71B
:1001A000FEE7FEE7FEE7FEE7FEE7FEE70448054957
:1001B000054A064B70470000470F0008ED00000895
:1001C0009000002090060020900200209002002065
:1001D0000FB41CB5074B06AA7B44694600900598EE
:1001E00000F093F90020694600F0A2F91CBC5DF80C
:1001F00014FB00005503000070B5044685690068D3
:10020000C10601D5302600E02026C00707D070BD0A
:10021000D4E9012130469047206A401C20626D1EBF
:10022000F6D570BD70B5044685690078C00707D162
:1002300070BDD4E9012120209047206A401C206233
:100240006D1EF6D570BD00002DE9F0410646002474
:1002500010687529314616A510D0AFF3008000282C
:1002600002DA404213A507E031688A0701D512A5DA
:1002700002E0490704D511A5012401E0AFF3008095
:1002800000210A2206F1240709E0B0FBF2FCB0FBD2
:10029000F2F302FB1C00303078541846491C002849
:1002A000F3D123462A463046BDE8F04100F0CEB8EF
:1002B000000000002D0000002B00000020000000C6
:1002C0002DE9F05F894604464FF0000ADFF824B1BB
:1002D000FB44C0F820A02046E168884700287DD074
:1002E000252806D0D4E901219047206A401C2062CD
:1002F000F1E700255F462046E1688847202806464A
:1003000007DB312E05D2B81910F8200C08B10543CF
:10031000F1E7A80701D525F00405C4F81CA00027C3
:10032000C4F818A02A2E09D0304600F01EFE38B3BB
:1003300004EB8708303EC8F8186019E059F8041B30
:10034000204604EB87029161E1688847012F064649
:1003500018D1E069002820DA25F020051DE0D8F842
:10036000180000EB800006EB40003038C8F8180099
:100370002046E1688847064600F0F7FD0028EED1E8
:10038000012F0AD02E2E08D12046E16888477F1C15
:100390000646022F45F02005C4DBA069002803DAD9
:1003A000404245F00105A061E80701D025F01005A5
:1003B000A6B1A6F14100192802D8203645F40065FF
:1003C0004A463146204625604D46FFF7C9FE60B1DA
:1003D000012807D0ED1D25F0070000E007E000F13F
:1003E000080978E705F1040975E730467AE7206ADD
:1003F000BDE8F09FE60E00004FF0000200B5134686
:1004000094469646203922BFA0E80C50A0E80C5034
:10041000B1F12001BFF4F7AF090728BFA0E80C50E5
:1004200048BF0CC05DF804EB890028BF40F8042BDE
:1004300008BF704748BF20F8022B11F0804F18BF4B
:1004400000F8012B70477047704770472DE9F0475F
:100450000D4699469246044600F124080168880634
:1004600004D5E06921F01001216000E00120A842DC
:1004700001DD471B00E00027A1697A1902EB0900A2
:10048000081AA0612078C00602D42046FFF7B4FE07
:10049000002608E0D4E901211AF806009047206AF6
:1004A000401C761C20624E45F4DB2078C0060AD53D
:1004B0002046FFF7A1FE06E0D4E901213020904755
:1004C000206A401C2062381EA7F10107F4DC07E017
:1004D000D4E9012118F805009047206A401C2062E9
:1004E000281EA5F10105F3DC2046FFF79BFE2078CE
:1004F000000602D50220BDE8F0870120FBE70000DE
:1005000001694A1C02610878704700B58FB0CDE9D7
:1005100001310021059105497944CDE903101146C7
:100520006846FFF7CDFE0FB000BD0000E5FFFFFFFE
:100530000A6802F8010B0A607047754600F02CF853
:10054000AE4605006946534620F00700854618B0C0
:1005500020B5FFF72BFEBDE820404FF000064FF01E
:1005600000074FF000084FF0000B21F00701AC46E8
:10057000ACE8C009ACE8C009ACE8C009ACE8C00907
:100580008D46704710B50446AFF300802046BDE8A5
:100590001040FFF7F7BD0000004870473000002012
:1005A00001491820ABBEFEE7260002007047FEE7B7
:1005B0007047012000F02CB8022000F029B800009C
:1005C00070B5044600F026F90546601C02D00448C8
:1005D0000078044400F01EF9401BA042FAD370BD1D
:1005E00010000020002201230849012806D002281B
:1005F00003D108784A7038B10A7070474B700A709E
:100600004A608A60CA6070470B7070470000002023
:10061000044910B50A68024202D00860FFF7E2FF01
:1006200010BD0000140401402DE9F84FDFF8B89127
:100630000024A9F1040B23460F2709F1040AABF1AA
:10064000040EC9E00125A5402A40AA427DD1674E8B
:10065000D1F804C0ACEB0608B44532D014DCBCF1D0
:10066000030F3AD009DCBCF1000F2AD0BCF1010F16
:100670001CD0BCF1020F31D11DE0BCF1110F17D01D
:10068000BCF1120F2AD119E0B8F5881F19D006DC89
:10069000B8F5803F15D0B8F5801F1FD111E0B8F52F
:1006A000001F0ED0B8F5041F18D10AE0CB6815E082
:1006B000CB681B1D12E0CB6808330FE0CB680C330E
:1006C0000CE08B682BB1012B4FF0080303D0456180
:1006D00004E0042302E0056100E00023FF2A01D8C2
:1006E000064601E000F104064FEA840501D9A5F1B0
:1006F0002005D6F8008007FA05FC28EA0C0803FA62
:1007000005F548EA0508C6F800804D68ED0062D599
:10071000374DAE6946F00106AE61AD6924F00306BF
:1007200005F001050095334D06EB050CDCF808508B
:10073000A607360F07FA06F825EA0805DFF8B8809D
:10074000404503D14FF0000817E044E0DFF8AC80EB
:10075000404502D14FF001080FE0DFF8A48040458A
:1007600002D14FF0020808E0DFF89880404502D13E
:100770004FF0030801E04FF0040808FA06F848EAD1
:100780000508CCF808804D68D9F80060ED024D46A8
:1007900001D5164300E096432E604D68DAF80060FC
:1007A000AD02554601D5164300E096432E604D68D4
:1007B000DBF80060AD035D4601D5164300E09643CB
:1007C0002E604D68DEF80060ED03754601D51643D6
:1007D00000E096432E60641C0D682A46E5407FF4D5
:1007E00031AFBDE8F88F000008040140000011108F
:1007F000001002400000014000080140000C0140D0
:1008000000100140001401400AB101617047090461
:10081000FBE70000014880687047000010000020DE
:1008200002488168027811448160704710000020FE
:10083000074810B5016841F010010160032000F085
:100840006DF80F2000F006F800F024F8002010BD2D
:100850000020024070B50D4D04464FF47A7128789F
:10086000B1FBF0F00A490968B1FBF0F000F0C8FAFA
:1008700048B9102C07D200222146501E00F02EF855
:1008800000206C6070BD012070BD000010000020D1
:100890001C000020094808B5816941F0010181610F
:1008A000816901F001010091C16941F08051C1618C
:1008B000C06900F08050009008BD000000100240A8
:1008C000002809DB00F01F0201219140400980004F
:1008D00000F1E020C0F8001170470000F0B40E4BAA
:1008E0001B680C46C3F30223C3F10705042D00D98E
:1008F0000425191D072901D2002300E0DB1E012673
:1009000006FA05F1491E214099409E40761E164088
:100910003143F0BC00F019BB0CED00E0064900F0DB
:10092000070208684FF6FF03184040EA0220034A16
:1009300010430860704700000CED00E00000FA056D
:10094000704700002DE9F0470F46050061D0434E87
:10095000306800F00700B84209D2306820F0070084
:1009600038433060306800F00700B84251D1286841
:100970003B4C810712D5400703D5606840F4E06026
:1009800060602878000703D5606840F460506060BC
:100990006068A96820F0F000084360602878C0070C
:1009A00028D06868012810D02168022810D0890753
:1009B00000292EDA616821F0030101436160FFF72D
:1009C00029FF804641F288390DE021688903EFE76D
:1009D0008901EDE7FFF71EFFA0EB0801494502D9A9
:1009E0000320BDE8F0876068696800F00C00B0EB98
:1009F000810FEFD1306800F00700B8420BD93068A2
:100A000020F0070038433060306800F00700B8423B
:100A100001D00120E5E72878400705D56068E9683E
:100A200020F4E060084360602878000706D560681D
:100A3000296920F4605040EAC100606000F01EF8AF
:100A40006168084AC1F30311515CC8400649086057
:100A500006480068FFF7FEFE0020C2E700200240C3
:100A600000100240AA1100081C0000201400002001
:100A700001490120C8647047000042420E4A516893
:100A80000E4801F00C03042B11D0082B0FD10C4899
:100A9000C1F38343C903C05C0AD55168084AC1F356
:100AA0004041921E515C054A5043B0FBF1F0704743
:100AB00004494843704700000010024000127A00C9
:100AC0009A11000800093D0010B5044CA06800060A
:100AD00003D5FFF735FF8020A07210BD0010024043
:100AE0002DE9F84F040070D02078C04DC00749D0E0
:100AF0006868C0F38100012807D06868C0F38100EE
:100B0000022809D16868C00306D52868800339D552
:100B100060680028E7D035E06068B0F5803F0BD012
:100B200010B1B0F5A02F11D0286820F480302860D3
:100B3000286820F4802002E0286840F48030286093
:100B4000606890B1FFF766FE06460AE0286840F448
:100B500080202860F0E700BFFFF75CFE801B642860
:100B600073D828688003F7D50CE0FFF753FE0646DC
:100B700005E000BFFFF74EFE801B6428F0D8286810
:100B80008003F7D420789A4E80074FF001094FF088
:100B9000000839D5686810F00C0F07D06868C0F3FA
:100BA0008100022809D16868C00306D4286880073C
:100BB00014D52069012808D110E02069B0B1C6F829
:100BC0000090FFF727FE074605E00AE1FFF722FE47
:100BD000C01B0228C4D828688007F7D52868616937
:100BE00020F0F80040EAC10028600DE0C6F800805F
:100BF000FFF710FE074604E0FFF70CFEC01B0228BB
:100C000023D828688007F7D4207800072CD57948A6
:100C1000A169D9B1C0F80090FFF7FCFD074604E0D8
:100C2000FFF7F8FDC01B02280FD8686A8007F7D5C8
:100C300071484FF4FA510068B0FBF1F0009000BF2A
:100C40000098411E0091FAD20EE080E0C0F80080CA
:100C5000FFF7E0FD074604E0FFF7DCFDC01B0228BC
:100C600075D8686A8007F7D42078400760D5E869AE
:100C70000027C00008D4E86940F08050E861E869C6
:100C8000012700F0805000905C480168C90513D42A
:100C90000168834641F480710160FFF7BBFD824625
:100CA00006E000BFFFF7B6FDA0EB0A0064284ED8AF
:100CB000DBF80000C005F5D5E06801280AD008B1CE
:100CC000052813D0286A20F001002862286A20F045
:100CD000040002E0286A40F001002862E06841F266
:100CE000883B98B1FFF796FD82460BE0286A40F0FA
:100CF00004002862EEE700BFFFF78CFDA0EB0A01BD
:100D000059455AD8286A8007F6D50CE0FFF782FDCE
:100D1000824605E0FFF77EFDA0EB0A0159454CD85D
:100D2000286A8007F6D41FB1E86920F08050E86196
:100D3000E06988B36968C1F38101022944D00228BF
:100D4000C6F8608004D0FFF765FD044638E034E063
:100D5000FFF760FD074604E0FFF75CFDC01B0228BB
:100D60002BD828688001F7D4206AB0F5803F05D1E0
:100D70006868A16820F4003008436860D4E908017D
:100D80000843696821F4741108436860C6F86090EC
:100D9000FFF740FD044606E025E000BFFFF73AFDFF
:100DA000001B022809D828688001F7D51BE000BF86
:100DB000FFF730FD001B022802D90320BDE8F88FA1
:100DC00028688001F4D40EE00128F7D06868226A10
:100DD00000F48031914204D1616A00F470108842BD
:100DE00001D00120EAE70020E8E7000000100240FF
:100DF00000004242800442421C000020007000407B
:100E000010B5401EB0F1807F01D3012010BD4FF01E
:100E1000E02460610F21601700F097F80020A061C6
:100E200007202061002010BDFEE7000070B586B0ED
:100E3000002425480094019402940394816941F0B0
:100E400020018161816901F020010491816941F0F3
:100E500004018161816901F004010491816941F01B
:100E6000080181618069194E00F0080040F2FF75A9
:100E70000490002229463046FFF7C6FC0220CDE947
:100E8000024000950125694601953046FFF7CCFBED
:100E9000032000900E48CDE9010569460D48FFF793
:100EA000C3FB002201210620FFF718FD0620FFF7F3
:100EB00007FD002202210720FFF710FD0720FFF7A2
:100EC000FFFC06B070BD00000010024000080140A9
:100ED00000001110000C0140FEE7FFF7F5FDFEE7F2
:100EE00070477047FFF79CBC30B58FB0282168462B
:100EF000FFF782FA14210AA8FFF77EFA01210804FD
:100F0000CDE900100024029402250491CDE9075098
:100F10004FF4402009906846FFF7E2FD08B172B631
:100F2000FEE70F20CDE90A059020CDE90C04012150
:100F30000AA80E94FFF706FD08B172B6FEE7FFF7A8
:100F400097FD0FB030BD7047FEE70907090E002876
:100F500004DB00F1E02080F80014704700F00F007F
:100F600000F1E02080F8141D704730380A2801D2C3
:100F7000012070470020704710B50120FFF720FBCB
:100F8000012000F0DFF8BDE81040022000F0DAB8E0
:100F900070B504460D460120FFF712FB5DB1012D2F
:100FA0000BD0022D0BD0032D0BD1D434E0B2BDE811
:100FB000704000F0C7B88034F8E7C034F6E79434E6
:100FC000F4E770BD10B50220FFF7FAFA382000F000
:100FD000B9F8062000F0B6F8BDE810400C2000F08B
:100FE000B1B8000070B504460120FFF7E9FA114DD1
:100FF000012211022846FFF707FC00226915284646
:10100000FFF702FC0022FF212846FFF7FDFB01222B
:1010100021462846FFF7F8FB012294022146284684
:10102000FFF7F2FB21462846BDE870400022FFF79B
:10103000EBBB00000008014010B504460120FFF79B
:10104000BFFA02E0FFF7CEFF641C20780028F9D138
:1010500010BD000008B5FFF7EBFBFFF745FFFFF7FA
:10106000E5FEFFF7AFFF274C27A1E0680090D4E929
:1010700001232A48FFF7ACF82848FFF7DDFF0121DC
:101080000020FFF785FF26A0FFF7D6FF5FF00005E1
:10109000FFF772FFE0680090D4E901231AA11F480E
:1010A000FFF796F81D48FFF7C7FF01210020FFF763
:1010B0006FFF607808B11AA00AE0207838B11BA051
:1010C000FFF7BAFFE068401CE060207810B91AA072
:1010D000FFF7B2FFE0680A2801D0A06803E0E560EE
:1010E000A068401CA0603C2801D0606803E0A560B7
:1010F0006068401C60603C2800D165606420FFF798
:101100005FFAC5E70000002020202020253032644F
:101110003A253032643A2530326400002000002045
:1011200020202020202053544F5000002020202039
:1011300052554E4E494E4700202020202050415508
:101140005345000070B504460220FFF739FA114DEF
:1011500000224FF480712846FFF756FB00226915E4
:101160002846FFF751FB0022FF212846FFF74CFBE2
:10117000012221462846FFF747FB0122940221461F
:101180002846FFF741FB21462846BDE87040002273
:10119000FFF73ABB000801400102020304050607FD
:1011A00008090A0B0C0D0E0F1010000000000000C3
:1011B00000000102030406070809040000080000FB
:1011C000000000000002000100001000EC11000807
:1011D0000000002020000000280100080C12000878
:1011E00020000020700600004401000800010000FB
:1011F00000000000000000000000000001000000EE
:0C12000010000000000000000024F400BA
:04000005080000ED02
:00000001FF
