:020000040800F2
:10000000180700209101000843120008F5100008AD
:10001000411200088F0400081714000800000000B7
:10002000000000000000000000000000471200086F
:100030009104000800000000451200084912000861
:10004000AB010008AB010008AB010008AB010008E0
:10005000AB010008AB010008AB010008AB010008D0
:10006000AB010008AB010008AB010008AB010008C0
:10007000AB010008AB010008AB010008AB010008B0
:10008000AB010008AB010008AB010008AB010008A0
:10009000AB010008AB010008AB010008AB01000890
:1000A000AB010008A9120008AB010008AB01000871
:1000B000AB010008AB010008AB010008AB01000870
:1000C000AB010008AB010008AB010008AB01000860
:1000D000AB010008AB010008AB010008AB01000850
:1000E000AB010008AB010008AB01000800F002F80A
:1000F00000F03FF80AA090E8000C82448344AAF183
:100100000107DA4501D100F034F8AFF2090EBAE880
:100110000F0013F0010F18BFFB1A43F0010318473B
:10012000A8140000C8140000103A24BF78C878C191
:10013000FAD8520724BF30C830C144BF04680C60ED
:10014000704700000023002400250026103A28BF35
:1001500078C1FBD8520728BF30C148BF0B60704739
:10016000642900F07D80002070471FB51FBD10B5C9
:1001700010BD00F052F91146FFF7F7FF01F0B0F99A
:1001800000F070F903B4FFF7F2FF03BC00F078F958
:100190000948804709480047FEE7FEE7FEE7FEE71B
:1001A000FEE7FEE7FEE7FEE7FEE7FEE70448054957
:1001B000054A064B70470000A5120008ED00000834
:1001C0001801002018070020180300201803002041
:1001D0000FB41CB5074B06AA7B44694600900598EE
:1001E00000F003F90020694600F012F91CBC5DF82C
:1001F00014FB0000350200002DE9F0410E460446D4
:10020000002020622046E168884730B3252805D0C9
:10021000D4E901219047206A401CF2E7E1682046BA
:1002200000278847050018D0A5F14100192802D8F9
:1002300020354FF400673246294620462760FFF7F5
:100240008FFF40B1012804D0F61D26F007060836BE
:10025000D8E7361DD6E72846DAE7206ABDE8F08100
:100260002DE9F0410646002410687529314616A58F
:1002700010D0AFF30080002802DA404213A507E057
:1002800031688A0701D512A502E0490704D511A5F6
:10029000012401E0AFF3008000210A2206F12407C7
:1002A00009E0B0FBF2FCB0FBF2F302FB1C003030C3
:1002B00078541846491C0028F3D123462A46304674
:1002C000BDE8F04100F032B8000000002D00000051
:1002D0002B000000200000004FF0000200B5134684
:1002E00094469646203922BFA0E80C50A0E80C5056
:1002F000B1F12001BFF4F7AF090728BFA0E80C5007
:1003000048BF0CC05DF804EB890028BF40F8042BFF
:1003100008BF704748BF20F8022B11F0804F18BF6C
:1003200000F8012B70477047704770472DE9F04780
:100330000D4699469246044600F124080168880655
:1003400004D5E06921F01001216000E00120A842FD
:1003500001DD471B00E00027A1697A1902EB0900C3
:10036000081AA0612078C00602D42046AFF30080AE
:10037000002608E0D4E901211AF806009047206A17
:10038000401C761C20624E45F4DB2078C0060AD55E
:100390002046AFF3008006E0D4E9012130209047E9
:1003A000206A401C2062381EA7F10107F4DC07E038
:1003B000D4E9012118F805009047206A401C20620A
:1003C000281EA5F10105F3DC2046AFF3008020785C
:1003D000000602D50220BDE8F0870120FBE70000FF
:1003E00001694A1C02610878704700B58FB0CDE9F9
:1003F00001310021059105497944CDE903101146E9
:100400006846FFF7F9FE0FB000BD0000E5FFFFFFF3
:100410000A6802F8010B0A607047754600F02CF874
:10042000AE4605006946534620F00700854618B0E1
:1004300020B5FFF7BBFEBDE820404FF000064FF0AF
:1004400000074FF000084FF0000B21F00701AC4609
:10045000ACE8C009ACE8C009ACE8C009ACE8C00928
:100460008D46704710B50446AFF300802046BDE8C6
:100470001040FFF787BE000000487047B40000201E
:1004800001491820ABBEFEE7260002007047FEE7D8
:10049000704772B6FEE7000070B5044600F004F93C
:1004A0000546601C02D004480078044400F0FCF8C3
:1004B000401BA042FAD370BD040000202DE9F84F84
:1004C000DFF8B8910024A9F1040B23460F2709F1A6
:1004D000040AABF1040EC9E00125A5402A40AA4256
:1004E0007DD1674ED1F804C0ACEB0608B44532D0DC
:1004F00014DCBCF1030F3AD009DCBCF1000F2AD0A8
:10050000BCF1010F1CD0BCF1020F31D11DE0BCF1D8
:10051000110F17D0BCF1120F2AD119E0B8F5881FBE
:1005200019D006DCB8F5803F15D0B8F5801F1FD173
:1005300011E0B8F5001F0ED0B8F5041F18D10AE07D
:10054000CB6815E0CB681B1D12E0CB6808330FE0C9
:10055000CB680C330CE08B682BB1012B4FF00803F8
:1005600003D0456104E0042302E0056100E00023BC
:10057000FF2A01D8064601E000F104064FEA84058F
:1005800001D9A5F12005D6F8008007FA05FC28EA74
:100590000C0803FA05F548EA0508C6F800804D681E
:1005A000ED0062D5374DAE6946F00106AE61AD692A
:1005B00024F0030605F001050095334D06EB050C0C
:1005C000DCF80850A607360F07FA06F825EA0805F2
:1005D000DFF8B880404503D14FF0000817E044E051
:1005E000DFF8AC80404502D14FF001080FE0DFF8A2
:1005F000A480404502D14FF0020808E0DFF898805F
:10060000404502D14FF0030801E04FF0040808FA1A
:1006100006F848EA0508CCF808804D68D9F800606B
:10062000ED024D4601D5164300E096432E604D681D
:10063000DAF80060AD02554601D5164300E0964356
:100640002E604D68DBF80060AD035D4601D51643B2
:1006500000E096432E604D68DEF80060ED037546BD
:1006600001D5164300E096432E60641C0D682A46AF
:10067000E5407FF431AFBDE8F88F00000804014089
:10068000000011100010024000000140000801406D
:10069000000C014000100140001401400AB101614A
:1006A00070470904FBE700000148806870470000BC
:1006B000040000200248816802781144816070477C
:1006C00004000020074810B5016841F010010160E6
:1006D000032000F06DF80F2000F006F800F024F879
:1006E000002010BD0020024070B50D4D04464FF4AF
:1006F0007A712878B1FBF0F00A490968B1FBF0F093
:1007000000F0B4FA48B9102C07D200222146501E3E
:1007100000F02EF800206C6070BD012070BD00005C
:100720000400002010000020094808B5816941F04C
:1007300001018161816901F001010091C16941F00C
:100740008051C161C06900F08050009008BD000078
:1007500000100240002809DB00F01F020121914037
:100760004009800000F1E020C0F80011704700004F
:10077000F0B40E4B1B680C46C3F30223C3F107050C
:10078000042D00D90425191D072901D2002300E0FA
:10079000DB1E012606FA05F1491E214099409E40C4
:1007A000761E16403143F0BC00F036BE0CED00E082
:1007B000064900F0070208684FF6FF03184040EAB8
:1007C0000220034A10430860704700000CED00E06F
:1007D0000000FA052DE9F0470F46050061D0434EB1
:1007E000306800F00700B84209D2306820F00700F6
:1007F00038433060306800F00700B84251D12868B3
:100800003B4C810712D5400703D5606840F4E06097
:1008100060602878000703D5606840F4605060602D
:100820006068A96820F0F000084360602878C0077D
:1008300028D06868012810D02168022810D08907C4
:1008400000292EDA616821F0030101436160FFF79E
:100850002BFF804641F288390DE021688903EFE7DC
:100860008901EDE7FFF720FFA0EB0801494502D918
:100870000320BDE8F0876068696800F00C00B0EB09
:10088000810FEFD1306800F00700B8420BD9306813
:1008900020F0070038433060306800F00700B842AD
:1008A00001D00120E5E72878400705D56068E968B0
:1008B00020F4E060084360602878000706D560688F
:1008C000296920F4605040EAC100606000F018F827
:1008D0006168084AC1F30311515CC84006490860C9
:1008E00006480068FFF700FF0020C2E70020024032
:1008F00000100240B615000810000020080000207B
:100900000E4A51680E4801F00C03042B11D0082B3D
:100910000FD10C48C1F38343C903C05C0AD55168A9
:10092000084AC1F34041921E515C054A5043B0FB56
:10093000F1F070470449484370470000001002403E
:1009400000127A00A615000800093D002DE9F84FB5
:10095000040070D02078C04DC00749D06868C0F34B
:100960008100012807D06868C0F38100022809D1FE
:100970006868C00306D52868800339D560680028F8
:10098000E7D035E06068B0F5803F0BD010B1B0F52E
:10099000A02F11D0286820F480302860286820F427
:1009A000802002E0286840F480302860606890B1C0
:1009B000FFF77AFE06460AE0286840F480202860A7
:1009C000F0E700BFFFF770FE801B642873D828682B
:1009D0008003F7D50CE0FFF767FE064605E000BF91
:1009E000FFF762FE801B6428F0D828688003F7D4E4
:1009F00020789A4E80074FF001094FF0000839D552
:100A0000686810F00C0F07D06868C0F381000228F6
:100A100009D16868C00306D42868800714D5206906
:100A2000012808D110E02069B0B1C6F80090FFF7A6
:100A30003BFE074605E00AE1FFF736FEC01B022831
:100A4000C4D828688007F7D52868616920F0F800C5
:100A500040EAC10028600DE0C6F80080FFF724FEE0
:100A6000074604E0FFF720FEC01B022823D82868B1
:100A70008007F7D4207800072CD57948A169D9B12F
:100A8000C0F80090FFF710FE074604E0FFF70CFEE9
:100A9000C01B02280FD8686A8007F7D571484FF449
:100AA000FA510068B0FBF1F0009000BF0098411EC1
:100AB0000091FAD20EE080E0C0F80080FFF7F4FD6C
:100AC000074604E0FFF7F0FDC01B022875D8686AEE
:100AD0008007F7D42078400760D5E8690027C00078
:100AE00008D4E86940F08050E861E869012700F027
:100AF000805000905C480168C90513D401688346A2
:100B000041F480710160FFF7CFFD824606E000BF2F
:100B1000FFF7CAFDA0EB0A0064284ED8DBF80000FE
:100B2000C005F5D5E06801280AD008B1052813D022
:100B3000286A20F001002862286A20F0040002E000
:100B4000286A40F001002862E06841F2883B98B1D1
:100B5000FFF7AAFD82460BE0286A40F004002862F5
:100B6000EEE700BFFFF7A0FDA0EB0A0159455AD8F8
:100B7000286A8007F6D50CE0FFF796FD824605E06F
:100B8000FFF792FDA0EB0A0159454CD8286A80076F
:100B9000F6D41FB1E86920F08050E861E06988B3BD
:100BA0006968C1F38101022944D00228C6F8608037
:100BB00004D0FFF779FD044638E034E0FFF774FD18
:100BC000074604E0FFF770FDC01B02282BD82868F9
:100BD0008001F7D4206AB0F5803F05D16868A1682C
:100BE00020F4003008436860D4E9080108436968CC
:100BF00021F4741108436860C6F86090FFF754FD53
:100C0000044606E025E000BFFFF74EFD001B02286A
:100C100009D828688001F7D51BE000BFFFF744FD25
:100C2000001B022802D90320BDE8F88F2868800144
:100C3000F4D40EE00128F7D06868226A00F480310D
:100C4000914204D1616A00F47010884201D0012001
:100C5000EAE70020E8E700000010024000004242FE
:100C600080044242100000200070004010B5401E79
:100C7000B0F1807F01D3012010BD4FF0E02460610E
:100C80000F21601700F0C8FB0020A0610720206141
:100C9000002010BD7047704770B590F83C20012AC5
:100CA00026D0012480F83C40022280F83D200368D1
:100CB0005A689D6822F070060A6832435A600D4BEC
:100CC00002689A4208D0B2F1804F05D00A4B9A428E
:100CD00002D00A4B9A4204D1496825F08003194397
:100CE000916080F83D40002180F83C10084670BDBE
:100CF000022070BD002C01400004004000080040AC
:100D000010B5040003D094F83D0010B107E00120B5
:100D100010BD002084F83C00204600F01FF802209F
:100D200084F83D00211D206800F0C4FA012084F8F9
:100D3000460084F83E0084F83F0084F8400084F8C0
:100D4000410084F8420084F8430084F8440084F8A9
:100D5000450084F83D00002010BD000000B585B0BE
:100D600000210091019102910391184A01681848ED
:100D7000914211D1816941F4006181618069002251
:100D800000F40060049011461920FFF7F1FC1920CF
:100D9000FFF7E0FC05B000BDB1F1804FFAD1C169A9
:100DA00041F00101C161C16901F001010491816952
:100DB00041F0040181618069694600F004000490FB
:100DC000012000900348FFF779FBE3E7002C014086
:100DD000001002400008014090F83D10012901D0A8
:100DE00001207047022180F83D100168CA6842F076
:100DF0000102CA6000680B49884208D0B0F1804FF8
:100E000005D00949884202D00849884204D1816846
:100E100001F00701062903D0016841F001010160DA
:100E200000207047002C01400004004000080040F2
:100E300070B5044690F83C000025012817D0012623
:100E400084F83C60022084F83D002068826822F02B
:100E5000770222F47F4282600868502838D00DDC87
:100E600020284FD005DC90B3102811D14AE0022091
:100E700070BD302846D040280AD13BE060282FD0F2
:100E800070280DD0B0F5805F03D0B0F5005F12D0B0
:100E9000012584F83D60002084F83C00284670BDA0
:100EA000CB68D1E90121206800F03AFA2068816816
:100EB00041F0770109E0CB68D1E90121206800F019
:100EC0002FFA2068816841F480418160E1E719E0F0
:100ED000CA684968206800F07BFA5021206806E063
:100EE000CA684968206800F084FA6021206800F030
:100EF00021FACEE7CA684968206800F069FA402103
:100F00002068F4E7226801461046F0E7704770B5A4
:100F10000446006801694FF00005C943890715D4EC
:100F2000C168C943890711D4E91E016101202077F6
:100F3000206880698007204602D0FFF7E7FF04E0C1
:100F400000F098F8204600F096F8257720680169AF
:100F5000C943490717D4C168C943490713D46FF07F
:100F600004010161022020772068806910F4407F2D
:100F7000204602D0FFF7CAFF04E000F07BF82046CD
:100F800000F079F8257720680169C943090716D46C
:100F9000C168C943090712D46FF008010161042038
:100FA00020772068C0698007204602D0FFF7AEFF97
:100FB00004E000F05FF8204600F05DF82577206837
:100FC0000169C943C90617D4C168C943C90613D406
:100FD0006FF010010161082020772068C06910F4CB
:100FE000407F204602D0FFF791FF04E000F042F876
:100FF000204600F040F8257720680169C943C907F9
:1010000008D1C168C943C90704D1891E01612046BE
:1010100000F032F820680169C943090609D4C168A3
:10102000C943090605D46FF0800101612046FFF72E
:1010300031FE20680169C943490609D4C168C94322
:10104000490605D46FF040010161204600F051F8D7
:1010500020680169C94389060BD4C168C943890660
:1010600007D46FF0200101612046BDE87040FFF712
:1010700012BE70BD704770470549884206D10549C8
:101080000120087004490020096848627047000088
:1010900024000020000000206C00002070B50446F1
:1010A00090F83C00012812D0012584F83C50022021
:1010B00084F83D00204600F045F901004FF00000A3
:1010C00007D084F83D5084F83C00012070BD022018
:1010D00070BD2168CA6822F04002CA602168CA68EF
:1010E00022F48042CA6084F83D5084F83C0000201D
:1010F00070BD7047FEE7000070B586B00024184848
:101100000094019402940394816941F0200181616B
:10111000816901F020010491816941F0040181613C
:10112000816901F004010491816941F00801816144
:1011300080690C4E00F0080040F2FF750490002218
:1011400029463046FFF7AAFA01200095CDE90104AF
:101150000220039069463046FFF7B0F906B070BD33
:1011600000100240000C014010B586B00024184861
:10117000009401940294039404941449059401602A
:1011800041F63F71C0E90114C910C0E90314802180
:10119000C0E90541FFF7B4FD08B1FFF77AF94FF454
:1011A0008050009069460A48FFF742FE08B1FFF7F9
:1011B00070F9049404A906480594FFF76DFD002812
:1011C00001D0FFF766F906B010BD0000002C014009
:1011D0002400002010B588B014216846FFF77CF881
:1011E0000024164805944FF080410694C0E900148D
:1011F0004FF6FF71C0E9024104618461FFF780FD91
:1012000008B1FFF746F9072000905020CDE901040E
:101210000A20049069460948FFF740FF08B1FFF72C
:1012200038F9059405A905480694FFF735FD00280F
:1012300001D0FFF72EF908B010BD00006C000020AF
:10124000FEE7FEE770477047FFF734BA30B58FB05E
:1012500028216846FFF740F814210AA8FFF73CF858
:101260000121080400240491CDE90010CDE908040F
:101270000294022507956846FFF768FB08B172B62D
:10128000FEE70F20CDE90A058020CDE90C040021FE
:101290000AA80E94FFF79EFA002801D072B6FEE766
:1012A0000FB030BD704700000148FFF730BE0000AE
:1012B00024000020F0B50268164B174C174D4FF074
:1012C0008047984205D0B84203D0A04201D0A8423E
:1012D00003D122F070064A683243984205D0B842E2
:1012E00003D0A04201D0A84203D122F44074CA68BE
:1012F00022434C6922F08002224302608A68C26263
:101300000A688262984201D1096901630121416141
:10131000F0BD0000002C0140000400400008004027
:1013200010B5846842EA032224F47F440A4322432E
:10133000826010BD826822F070020A4342F0070109
:101340008160704770B5036800249A6822F07005C8
:101350004A682A4322F007050A682A439A604A68C5
:1013600012F00F0F31D11211082A2ED2DFE802F04D
:101370002E2E2E2E0B2127040B69D1E902210068A5
:10138000FFF7CEFF22E00A68052A10D00268136A30
:10139000156A25F00105156202689569096925F04D
:1013A000F00545EA01119161006803620EE0012039
:1013B00070BD0A698968006800F00AF806E00A69E9
:1013C0008968006800F015F800E00124204670BD2F
:1013D00010B5036A046A24F001040462846924F0ED
:1013E000F00444EA021423F00A020A438461026210
:1013F00010BD10B5036A046A24F010040462846905
:1014000023F0A00324F4704444EA023243EA0111B9
:101410008261016210BDFEE70907090E002804DBA6
:1014200000F1E02080F80014704700F00F0000F198
:10143000E02080F8141D704710B50120FFF72CF84C
:10144000012000F085F8BDE81040022000F080B8CF
:1014500010B50220FFF720F8382000F079F80620B8
:1014600000F076F8BDE810400C2000F071B80000E4
:1014700070B504460120FFF70FF8114D012211024B
:101480002846FFF70BF9002269152846FFF706F9F1
:101490000022FF212846FFF701F9012221462846B4
:1014A000FFF7FCF80122940221462846FFF7F6F8E0
:1014B00021462846BDE870400022FFF7EFB8000043
:1014C000000C014010B504460120FEF7E5FF02E0E4
:1014D000FFF7CEFF641C20780028F9D110BD000072
:1014E000FFF7F0F8FFF7B2FEFFF706FEFFF73CFE4E
:1014F000FFF770FE0F48FFF76FFC0F48FFF76CFC1B
:101500000D4D002628684662FFF7A2FF0B4C20789D
:1015100060B1FFF791FF0A48FFF7D4FF267060889B
:1015200008A142080648FEF753FEF0E72868406A23
:101530006080F4E7240000206C0000200000002000
:101540001400002020467265713D20256420200093
:1015500070B504460220FEF79FFF114D00224FF4A4
:1015600080712846FFF79AF8002269152846FFF790
:1015700095F80022FF212846FFF790F80122214626
:101580002846FFF78BF80122940221462846FFF7F0
:1015900085F821462846BDE870400022FFF77EB856
:1015A000000C0140010202030405060708090A0BAA
:1015B0000C0D0E0F101000000000000000000102D2
:1015C0000304060708090000E815000800000020D1
:1015D0001400000028010008FC1500081400002079
:1015E00004070000440100080000000001000000A2
:0C15F00010000000000000000024F400C7
:04000005080000ED02
:00000001FF
